:100000000C942A000C9447000C9447000C94470071
:100010000C9447000C9447000C9447000C94470044
:100020000C9447000C9447000C9447000C94470034
:100030000C9447000C9447000C9447000C94470024
:100040000C9447000C9447000C9447000C94470014
:100050000C94470011241FBECFE5D8E0DEBFCDBF12
:1000600015E0A0E6B0E0EEECFEE202C005900D92D5
:10007000A036B107D9F715E0A0E6B5E001C01D92A2
:10008000AC3DB107E1F70E9478150C9465170C940C
:100090000000A0E0B0E0EFE4F0E00C94E916DC0131
:1000A0002B01FA019C91923008F439C1EB0188814F
:1000B000823008F433C1943069F4843009F02FC1E0
:1000C00011969C9111978981981709F428C1ABE486
:1000D000B4E025C1843009F421C18230A9F4923002
:1000E00009F01DC19A01AD0188E0EA010990AE0155
:1000F000E90109929E018150C1F7E20189811196BF
:100100009C918923818308C1923009F407C112961A
:100110002D903C901397EB018A819B811496AD90B2
:10012000BD90CD90DC901797EC80FD800E811F81F3
:100130009101281B390BB90137FF04C066277727C7
:10014000621B730B603271050CF061C0121613064E
:100150006CF537014801062E04C096948794779475
:1001600067940A94D2F721E030E040E050E004C008
:10017000220F331F441F551F6A95D2F7215030407C
:10018000404050402E213F2140235123211531056D
:100190004105510521F021E030E040E050E07901D7
:1001A0008A01E628F728082919293CC0232BD1F118
:1001B000260E371E35014601062E04C096948794FC
:1001C000779467940A94D2F721E030E040E050E061
:1001D00004C0220F331F441F551F6A95D2F72150C8
:1001E0003040404050402A213B214C215D212115C7
:1001F00031054105510521F021E030E040E050E0BB
:1002000059016A01A628B728C828D9280BC0821529
:1002100093052CF01C01AA24BB24650103C0EE2425
:10022000FF24870111969C91D20111968C91981709
:1002300009F445C0992339F0A80197012A193B090F
:100240004C095D0906C0A60195012E193F09400B16
:10025000510B57FD08C011823382228224833583DB
:10026000468357831DC081E08183338222828827A1
:100270009927DC01821B930BA40BB50B8483958318
:10028000A683B7830DC0220F331F441F551F24833D
:100290003583468357838281938101979383828339
:1002A0002481358146815781DA01C9010197A1096D
:1002B000B1098F5F9F4FAF4FBF4328F30BC09183AE
:1002C00033822282EA0CFB1C0C1D1D1DE482F58288
:1002D0000683178383E0808324813581468157819B
:1002E00057FF1AC0C901AA2797FDA095BA2F8170A0
:1002F0009070A070B0705695479537952795822BD2
:10030000932BA42BB52B84839583A683B7838281FB
:100310009381019693838283DF0101C0D201CD01D5
:10032000CDB7DEB7E2E10C940517A0E2B0E0EBE94F
:10033000F1E00C94F51669837A838B839C832D837B
:100340003E834F835887E9E0EE2EF12CEC0EFD1E24
:10035000CE010196B7010E9448068E010F5E1F4F25
:10036000CE010596B8010E9448068A8991E0892746
:100370008A8BC701B801AE01475E5F4F0E944900FA
:100380000E947305A096E6E00C941117A0E2B0E07D
:10039000ECECF1E00C94F51669837A838B839C83F3
:1003A0002D833E834F835887F9E0EF2EF12CEC0E1E
:1003B000FD1ECE010196B7010E9448068E010F5E18
:1003C0001F4FCE010596B8010E944806C701B8012B
:1003D000AE01475E5F4F0E9449000E947305A096E0
:1003E000E6E00C941117A0E2B0E0E9EFF1E00C9424
:1003F000E91669837A838B839C832D833E834F83A5
:100400005887CE010196BE01675F7F4F0E94480664
:10041000CE010596BE016F5E7F4F0E94480699850A
:10042000923088F089898230C8F0943019F4823093
:1004300051F404C0843029F4923081F48BE494E0C8
:10044000C6C0923049F420E09A858A89981321E049
:100450002A87CE010996BBC0823049F420E09A85F4
:100460008A89981321E02A8BCE014196B0C02D8451
:100470003E844F8458886D887E888F88988CEE24BF
:10048000FF248701AA24BB24650140E050E060E01E
:1004900070E0E0E0F0E0C10181709070892BE9F03C
:1004A000E60CF71C081D191D9A01AB012A0D3B1D16
:1004B0004C1D5D1D80E090E0A0E0B0E0E614F70484
:1004C0000805190520F481E090E0A0E0B0E0BA0151
:1004D000A901480F591F6A1F7B1FAA0CBB1CCC1C0B
:1004E000DD1C97FE08C081E090E0A0E0B0E0A82A03
:1004F000B92ACA2ADB2A3196E032F10549F0660CA6
:10050000771C881C991C5694479437942794C3CF22
:10051000FA85EA892B893C898B859C85280F391FB0
:100520002E5F3F4F17C0CA0181709070892B61F018
:1005300016950795F794E79480E090E0A0E0B0E886
:10054000E82AF92A0A2B1B2B76956795579547952C
:100550002F5F3F4F77FDE7CF0CC0440F551F661F3D
:10056000771F17FD4160EE0CFF1C001F111F21506B
:100570003040403090E0590790E0690790E47907F7
:1005800060F32B8F3C8FDB01CA018F779070A070D6
:10059000B07080349105A105B10561F447FD0AC032
:1005A000E114F1040105110529F0405C5F4F6F4F24
:1005B0007F4F40781A8EFE1711F081E08A8F4D8FA1
:1005C0005E8F6F8F78A383E0898FCE0149960E945A
:1005D0007305A096E2E10C940517A8E1B0E0E3EF03
:1005E000F2E00C94F11669837A838B839C832D83CC
:1005F0003E834F835887B9E0EB2EF12CEC0EFD1EA5
:10060000CE010196B7010E9448068E010F5E1F4F72
:10061000CE010596B8010E9448062985223008F4CB
:100620007EC03989323010F4B8017CC08A859A893D
:1006300089278A87243011F0223031F4231709F0FA
:100640006EC06BE474E06EC0343039F41D861E86D3
:100650001F86188A1C861B8604C0323021F484E071
:100660008987B7015FC02B853C858B899C89281BB6
:10067000390B3C872B87ED84FE840F851889AD8864
:10068000BE88CF88D88CEA14FB040C051D0540F405
:10069000EE0CFF1C001F111F215030403C872B87A0
:1006A00020E030E040E050E080E090E0A0E0B0E406
:1006B00060E070E0EA14FB040C051D0540F0282BF7
:1006C000392B4A2B5B2BEA18FB080C091D09B69540
:1006D000A79597958795EE0CFF1C001F111F6F5F64
:1006E0007F4F6F31710531F7DA01C9018F77907053
:1006F000A070B07080349105A105B10561F427FDAB
:100700000AC0E114F1040105110529F0205C3F4FF6
:100710004F4F5F4F20782D873E874F87588BBE0104
:10072000675F7F4FCB010E9473056896EAE00C94E7
:100730000D17A8E1B0E0EFE9F3E00C94F51669833A
:100740007A838B839C832D833E834F83588789E0F4
:10075000E82EF12CEC0EFD1ECE010196B7010E9491
:1007600048068E010F5E1F4FCE010596B8010E940C
:1007700048068985823040F08989823028F0C70197
:10078000B8010E94C00601C08FEF6896E6E00C94A5
:100790001117A8E1B0E0EFECF3E00C94F5166983D3
:1007A0007A838B839C832D833E834F83588789E094
:1007B000E82EF12CEC0EFD1ECE010196B7010E9431
:1007C00048068E010F5E1F4FCE010596B8010E94AC
:1007D00048068985823040F08989823028F0C70137
:1007E000B8010E94C00601C081E06896E6E00C9462
:1007F0001117A8E0B0E0EFEFF3E00C94F2169B01C4
:10080000AC0183E08983DA01C9018827B7FD8395AC
:100810009927AA27BB27B82E211531054105510577
:1008200019F482E089833AC08823A9F0203080E05F
:10083000380780E0480780E8580729F460E070E056
:1008400080E09FEC30C0EE24FF248701E21AF30A17
:10085000040B150B02C079018A018EE1C82ED12C40
:10086000DC82CB82ED82FE820F831887C801B7013C
:100870000E94240501971816190684F4082E04C056
:10088000EE0CFF1C001F111F0A94D2F7ED82FE82AE
:100890000F831887C81AD90ADC82CB82BA82CE01AC
:1008A00001960E9473052896E9E00C940E17ACE0BF
:1008B000B0E0EDE5F4E00C94F91669837A838B835C
:1008C0009C83CE010196BE016B5F7F4F0E9448065C
:1008D0008D81823061F1823050F1843021F48E813B
:1008E000882351F12EC02F81388537FD20C06E81BD
:1008F0002F3131051CF06623F9F023C08EE190E022
:10090000821B930B29853A854B855C8504C05695DF
:100910004795379527958A95D2F76623B1F050957C
:100920004095309521953F4F4F4F5F4F0EC020E0CF
:1009300030E040E050E009C02FEF3FEF4FEF5FE7BE
:1009400004C020E030E040E050E8B901CA012C9634
:10095000E2E00C941517A8E0B0E0E1EBF4E00C94B1
:10096000F1167B018C01611571058105910519F462
:1009700082E0898360C083E089838EE1C82ED12C18
:10098000DC82CB82ED82FE820F831887C801B7011B
:100990000E942405FC013197F7FF3BC02227332733
:1009A0002E1B3F0B57016801022E04C0D694C7943A
:1009B000B794A7940A94D2F740E050E060E070E06A
:1009C00081E090E0A0E0B0E004C0880F991FAA1F6A
:1009D000BB1F2A95D2F70197A109B1098E219F214A
:1009E000A023B1230097A105B10521F041E050E01B
:1009F00060E070E04A295B296C297D294D835E8384
:100A00006F8378878EE190E08E1B9F0B9C838B8396
:100A100012C0309781F00E2E04C0EE0CFF1C001F98
:100A2000111F0A94D2F7ED82FE820F831887CE1A27
:100A3000DF0ADC82CB821A82CE0101960E94730506
:100A40002896EAE00C940D17EF92FF920F931F93F4
:100A50007B018C0180E0E81680E0F80681E0080761
:100A600080E0180788F48FEFE816F10401051105FE
:100A700031F028F088E090E0A0E0B0E017C080E01E
:100A800090E0A0E0B0E012C080E0E81680E0F80658
:100A900080E0080781E0180728F088E190E0A0E0F6
:100AA000B0E004C080E190E0A0E0B0E020E230E0FF
:100AB00040E050E0281B390B4A0B5B0B04C0169535
:100AC0000795F794E7948A95D2F7F701ED5AFB4F13
:100AD0008081281B310941095109C9011F910F91DA
:100AE000FF90EF900895DF92EF92FF920F931F9384
:100AF000FC01E480F58006811781D18080818230FD
:100B000048F480E090E0A0E1B0E0E82AF92A0A2B5E
:100B10001B2BA5C0843009F49FC0823021F4EE2441
:100B2000FF24870105C0E114F1040105110519F442
:100B3000E0E0F0E096C0628173819FEF6238790750
:100B40000CF05BC022E83FEF261B370B2A31310542
:100B50002CF020E030E040E050E02AC0B801A701CE
:100B6000022E04C076956795579547950A94D2F75B
:100B700081E090E0A0E0B0E004C0880F991FAA1FB8
:100B8000BB1F2A95D2F70197A109B1098E219F2198
:100B9000A023B1230097A105B10521F081E090E0E9
:100BA000A0E0B0E09A01AB01282B392B4A2B5B2B3C
:100BB000DA01C9018F779070A070B0708034910510
:100BC000A105B10539F427FF09C0205C3F4F4F4F05
:100BD0005F4F04C0215C3F4F4F4F5F4FE0E0F0E0BC
:100BE0002030A0E03A07A0E04A07A0E45A0710F03E
:100BF000E1E0F0E079018A0127C06038710564F511
:100C0000FB01E158FF4FD801C7018F779070A070AA
:100C1000B07080349105A105B10539F4E7FE0DC02F
:100C200080E490E0A0E0B0E004C08FE390E0A0E0BA
:100C3000B0E0E80EF91E0A1F1B1F17FF05C016952E
:100C40000795F794E794319687E016950795F79402
:100C5000E7948A95D1F705C0EE24FF248701EFEFD2
:100C6000F0E06E2F679566276795902F9F77D79452
:100C7000DD24D7948E2F8695492F462B582F5D293A
:100C8000B701CA011F910F91FF90EF90DF90089577
:100C9000FC01DB01408151812281622F6F7770E07E
:100CA000221F2227221F9381892F880F822B282F12
:100CB00030E0991F9927991F11969C931197211540
:100CC0003105A9F5411551056105710511F482E061
:100CD00037C082E89FEF13969C938E9312979A01E8
:100CE000AB0167E0220F331F441F551F6A95D1F7F0
:100CF00083E08C930DC0220F331F441F551F1296A3
:100D00008D919C911397019713969C938E931297B4
:100D1000203080E0380780E0480780E4580758F327
:100D200014962D933D934D935C93179708952F3F01
:100D3000310579F4411551056105710519F484E017
:100D40008C93089564FF03C081E08C9312C01C92C1
:100D500010C02F57304013963C932E93129783E088
:100D60008C9387E0440F551F661F771F8A95D1F734
:100D7000706414964D935D936D937C9317970895CB
:100D80001F93DC01FB019C91923008F447C08081E5
:100D9000823008F443C0943051F411961C91843091
:100DA00099F58181682F70E0611B71093FC0843023
:100DB00021F0923031F48230B9F18181882389F1B8
:100DC0002DC011961C9111978230F1F08181181776
:100DD000D9F412962D913C911397828193818217B9
:100DE000930794F028173907BCF014968D919D91C4
:100DF0000D90BC91A02D2481358146815781281703
:100E000039074A075B0718F4112341F00AC082171B
:100E10009307A407B50740F4112319F061E070E0CF
:100E200005C06FEF7FEF02C060E070E0CB011F9163
:100E300008951ABA87E886B980E487B9089597B10A
:100E40008F70892B87B9369A349BFECF8AE18A95B9
:100E5000F1F794B185B1382F20E0290F311DC90178
:100E600008956130A1F4813051F0813028F0823052
:100E700049F0833061F409C08FEF8ABB08958FEF8A
:100E800087BB08958FEF84BB08958FEF81BB0895D2
:100E9000813049F0813028F0823039F0833041F4DC
:100EA00006C06BBB089568BB089565BB089562BB1F
:100EB0000895843008F075C0683008F072C0413081
:100EC000B1F5813099F0813030F08230D1F083304B
:100ED00009F067C021C02AB381E090E002C0880F0A
:100EE000991F6A95E2F7282B2ABB089527B381E062
:100EF00090E002C0880F991F6A95E2F7282B27BB64
:100F0000089524B381E090E002C0880F991F6A958C
:100F1000E2F7282B24BB089521B381E090E002C0C2
:100F2000880F991F6A95E2F7282B21BB0895442367
:100F3000C1F5813099F0813028F08230D9F08330CA
:100F400081F524C02AB381E090E002C0880F991F88
:100F50006A95E2F7809582238ABB089527B381E0E2
:100F600090E002C0880F991F6A95E2F7809582236E
:100F700087BB089524B381E090E002C0880F991FD9
:100F80006A95E2F78095822384BB089521B381E0BE
:100F900090E002C0880F991F6A95E2F7809582233E
:100FA00081BB0895843008F075C0683008F072C0C5
:100FB0004130B1F5813099F0813030F08230D1F09C
:100FC000833009F067C021C02BB381E090E002C0FC
:100FD000880F991F6A95E2F7282B2BBB089528B339
:100FE00081E090E002C0880F991F6A95E2F7282BF4
:100FF00028BB089525B381E090E002C0880F991FB7
:101000006A95E2F7282B25BB089522B381E090E092
:1010100002C0880F991F6A95E2F7282B22BB08951A
:101020004423C1F5813099F0813028F08230D9F025
:10103000833081F524C02BB381E090E002C0880F9B
:10104000991F6A95E2F7809582238BBB089528B398
:1010500081E090E002C0880F991F6A95E2F78095C1
:10106000822388BB089525B381E090E002C0880FF9
:10107000991F6A95E2F78095822385BB089522B374
:1010800081E090E002C0880F991F6A95E2F7809591
:10109000822382BB0895DF93CF930F92CDB7DEB743
:1010A0008430D0F46830C0F4813049F0813028F0C9
:1010B000823039F0833081F406C089B305C086B32D
:1010C00003C083B301C080B390E002C095958795BB
:1010D0006A95E2F78170898389810F90CF91DF91C2
:1010E000089583B984E886BF06B607FEFDCF08954C
:1010F00084EA86BF06B607FEFDCF089584E986BF61
:101100000895882311F484EC01C084E886BF06B6F4
:1011100007FEFDCF83B1089511B882E080B984E461
:1011200086BF089582B90895982F84EA86BF06B6CF
:1011300007FEFDCF93B984E886BF06B607FEFDCF54
:1011400084E886BF06B607FEFDCF43B184E986BFBB
:1011500084EF91E028EC30E0F9013197F1F7019745
:10116000D9F7842F0895982F84EA86BF06B607FE24
:10117000FDCF93B984E886BF06B607FEFDCF63B9FD
:1011800084E886BF06B607FEFDCF84E986BF0895D2
:10119000982F84EA86BF06B607FEFDCF93B984E890
:1011A00086BF06B607FEFDCF63B984E886BF06B6E4
:1011B00007FEFDCF43B984E886BF06B607FEFDCF24
:1011C00084E986BF84EF91E028EC30E0F9013197A3
:1011D000F1F70197D9F70895FC0184EA86BF06B6B6
:1011E00007FEFDCF63B984E886BF06B607FEFDCFD4
:1011F00043B984E886BF06B607FEFDCF84EA86BF02
:1012000006B607FEFDCF616063B984E886BF06B607
:1012100007FEFDCF84E886BF06B607FEFDCF83B18B
:10122000808394E996BF0895539A20B52F7720BD07
:101230009C0140E050E084E0220F331F441F551F03
:101240008A95D1F760E072E18AE790E00E94AC16DF
:101250002150304030BD29B980B5866880BD80B549
:10126000806B80BD80B5806880BD0895549A20B59C
:101270002F7720BD9C0140E050E094E0220F331F07
:10128000441F551F9A95D1F760E072E18AE790E01C
:101290000E94AC162150304030BD29B980B5866817
:1012A00080BD80B5806B80BD80B5806880BD0895AD
:1012B0005D9BFECF8CB95E9BFECF08955F9BFECFFA
:1012C0008CB1089590916105943140F4E92FF0E0DC
:1012D000ED59FA4F80839F5F9093610508952091A7
:1012E000610530E009C0243130F4E22FF0E0ED591F
:1012F000FA4F40832F5F3F5FFC01E30FF11D4081F8
:10130000442389F72093610508951F931091620586
:1013100080916105181758F4E12FF0E0ED59FA4F6C
:1013200080810E9458091F5F1093620504C01092CB
:101330006105109262051F910895909160059431A6
:1013400040F4E92FF0E0E958FA4F80839F5F9093D3
:10135000600508955F9BFECF9CB18091600584314C
:1013600040F4E82FF0E0E958FA4F90838F5F8093C4
:1013700060050895CF93DF93EC0102C00E945809E5
:1013800089918823D9F7DF91CF910895FC015F9B64
:10139000FECF8CB1808308951ABA80EF84BBD89AAF
:1013A000D99ADA9ADB9AAC9AAD9AAE9AAF9A089526
:1013B00080E197E2FC013197F1F7AC98AD9AAE9AD3
:1013C000AF9A0197F1F7C89902C087E30DC0C99998
:1013D00002C084E309C0CA9902C081E305C0CB9969
:1013E00002C08AE201C080E0AC9AAD98AE9AAF9A92
:1013F000E0E1F7E23197F1F7C89902C088E30AC04B
:10140000C99902C085E306C0CA9902C082E302C03E
:10141000CB9B80E3AC9AAD9AAE98AF9AE0E1F7E24D
:101420003197F1F7C89902C089E30AC0C99902C08F
:1014300086E306C0CA9902C083E302C0CB9B83E265
:10144000AC9AAD9AAE9AAF98E0E1F7E23197F1F736
:10145000C89902C08BE20895C99902C08DE208952F
:10146000CA9902C08AE20895CB9B8FE208959698AC
:1014700020ED37E0F9013197F1F7979AF9013197AB
:10148000F1F7982F92959F7098BB9798F901319733
:10149000F1F79698979AF9013197F1F78F7088BB19
:1014A0009798C9010197F1F7089581B3806C81BBCA
:1014B0008FE087BB82E00E94370A88E20E94370AE9
:1014C00081E00E94370A8CE00E94370A089581E08B
:1014D0000E94370A0895969A20ED37E0F901319776
:1014E000F1F7979AF9013197F1F7982F92959F703C
:1014F00098BB9798F9013197F1F7969A979AF90165
:101500003197F1F78F7088BB9798C9010197F1F770
:101510000895CF93DF93EC0102C00E946B0A89917A
:101520008823D9F7DF91CF910895813041F0813040
:1015300058F0823031F0833031F060E005C0605CFB
:1015400003C0605F01C0605B862F80680E94370A1D
:1015500008950F931F938A010E94950AC8010E9463
:10156000890A1F910F9108954AE050E00E942017C8
:101570000895CF93DF93EC0120E030E040E050E0AD
:10158000FE01E20FF31FDB01A20FB31F90818C91CC
:10159000981711F44F5F5F4F2F5F3F4F2430310595
:1015A00079F720E030E04430510511F421E030E0DB
:1015B000C901DF91CF91089590915D0520E0D1C0E0
:1015C000A22FB0E0FD01E153FA4F8081FD01E65505
:1015D000FA4F8F3F11F180818F3F09F4C1C0FD01A7
:1015E000E852FA4F80818F3F09F4C3C0FD01EA54ED
:1015F000FA4F80818F3F09F4BCC0FD01E254FA4FDD
:1016000080818F3F09F4B5C0FD01E654FA4F808117
:101610008F3F09F4AEC093E3ACC080818F3F09F0E7
:101620009FC0FD01E852FA4F80818F3F09F4A8C0A6
:10163000FD01EA54FA4F80818F3F09F4A1C0FD01FA
:10164000E254FA4F80818F3F09F49AC0FD01E654BD
:10165000FA4F80818F3F09F493C092E391C0FD015E
:10166000EA54FA4F80818F3F09F091C0FD01E254A6
:10167000FA4F80818F3F09F48AC0FD01E654FA4F8A
:1016800080818F3F09F483C092E381C0FD01EA5459
:10169000FA4F80818F3F09F082C0FD01E254FA4F7A
:1016A00080818F3F09F47BC0FD01E654FA4F8081B1
:1016B0008F3F09F474C091E372C0FD01EA54FA4F00
:1016C00080818F3F09F473C0FD01E254FA4F80819D
:1016D0008F3F09F06CC0FD01E654FA4F80818F3FC7
:1016E00009F065C092E363C0FD01EA54FA4F8081BE
:1016F0008F3F09F463C0FD01E254FA4F80818F3FB0
:1017000009F05CC0FD01E654FA4F80818F3F09F07B
:1017100055C091E353C0FD01EA54FA4F80818F3FD9
:10172000F9F4FD01E254FA4F80818F3FC9F4A654C9
:10173000BA4F8C918F3FA1F491E312C0FD01EA549E
:10174000FA4F80818F3F61F4FD01E254FA4F8081AE
:101750008F3F31F4A654BA4F8C918F3F09F490E338
:101760002F5F243008F42CCF90935D0520938C05D7
:101770000895FD01E852FA4F80818F3F41F46FCF09
:10178000FD01E852FA4F80818F3F49F47FCFFD0180
:10179000E852FA4F80818F3F09F08FCF08C0FD01DA
:1017A000E852FA4F80818F3F09F09ECF07C0FD01BC
:1017B000E852FA4F80818F3F99F6ADCFFD01E85294
:1017C000FA4F80818F3F61F6B9CF8C9A8FB58360D5
:1017D0008FBD8EB588618EBD8FB580628FBD8EB591
:1017E00083608EBD8FEF8BBD8ABD8D9808958FB5B8
:1017F00083688FBD8EB58A608EBD8D9A8C98089552
:10180000A0E0B0E0DC0199278827BC01CD0124E6E7
:1018100030E040E050E00E94CE1621503040404081
:101820005040BB27A52F942F832F89BD28BD089535
:101830009BBD8ABD0895D49ADC9A80E395E728EC95
:1018400030E0F9013197F1F70197D9F7DC98089565
:101850000E94F70B0E94670A80E060E040E650E0DB
:101860000E94A90A80E090E020E137E206C09BBD1B
:101870008ABDF9013197F1F7019643E08F3F940754
:10188000B4F38FEF93E020E137E206C09BBD8ABD41
:10189000F9013197F1F7019718161906BCF39093E7
:1018A0009F0580939E058D980E94670A089580E0A9
:1018B00060E04AE650E00E94A90A80E068E041E763
:1018C00050E00E94A90A81E060E046E750E00E94F3
:1018D000A90A81E069E04FE750E00E94A90A089553
:1018E000EF92FF920F931F93CF93DF9385E00E94B7
:1018F0001F07A0E0B0E0BC01CD010E94AB0420E0D6
:1019000030E040EA50E40E94F3010E945704882727
:1019100077FD8095982F0E94F90320E030E040E8A1
:101920005AE30E94F30160939605709397058093A4
:101930009805909399052AE037ED43E25CE30E9415
:10194000ED0260939A0570939B0580939C0590939C
:101950009D05C8ECD0E060919A0570919B0580913F
:101960009C0590919D050E945704DC01CB0160EA23
:1019700075E00E94B40A81E060E046E850E00E9411
:10198000A90A81E06DE040EA55E00E94A90AE090D2
:101990009A05F0909B0500919C0510919D05C8014A
:1019A000B70120E030E040EE51E40E9499031816A0
:1019B000DCF48C9A949AC801B70120E030E040E84A
:1019C0005FE30E94950160939A0570939B05809355
:1019D0009C0590939D0528E833E1FE013197F1F7CE
:1019E00021503040D1F740C0C801B70120E030E0BD
:1019F00048EA51E40E94C9038823E4F48C9894983F
:101A00008FB58E7F8FBD8FB58D7F8FBD8EB58D7F4E
:101A10008EBD8EB5877F8EBD8EB58F7E8EBD80E0EC
:101A200090E00E94000CDF91CF911F910F91FF90E9
:101A3000EF9008958C9A949AC801B70120E030E0A5
:101A400040E85FE30E94950160939A0570939B05BF
:101A500080939C0590939D0528E833E1FE01319722
:101A6000F1F721503040D1F70E945704DC01CB013F
:101A700060EA75E00E94B40A81E060E046E850E068
:101A80000E94A90A81E06DE040EA55E00E94A90A9F
:101A900062CFAF92BF92CF92DF92EF92FF920F93FD
:101AA0001F93DF93CF930F92CDB7DEB7062FB72EDC
:101AB000A42E19827C0110E06E010894C11CD11C77
:101AC000412F4A0DC60160EA0E94EC088981F701A6
:101AD00081937F011F5F1982143091F7802F9B2D16
:101AE0009C01790110E06E010894C11CD11C412FAA
:101AF0004A0DC60160EA0E94EC088981F7018193D2
:101B00007F011F5F1982143091F70F90CF91DF9101
:101B10001F910F91FF90EF90DF90CF90BF90AF900B
:101B200008951F93DF93CF930F92CDB7DEB7182F91
:101B300084B38C6084BB81B38C6081BBD79A88EE00
:101B400093E028EC30E0F9013197F1F70197D9F7EC
:101B500019820E94670A80EA61E4412F0E94C80846
:101B6000CE01019660EA41E40E94EC08898183334A
:101B700009F43DC0843330F4813359F0823309F0E5
:101B80007EC01EC0843309F449C0853309F077C094
:101B90005CC0AA9AAB988B988A98D798AB98939880
:101BA0009298DF9888EE93E028EC30E0F9013197C5
:101BB000F1F70197D9F780E060E042E950E05DC0BD
:101BC000AB9AA2988B988A98D798AA98939892984B
:101BD000DF9888EE93E028EC30E0F9013197F1F7D7
:101BE0000197D9F780E060E04BE950E046C0929A57
:101BF000A3988B98A298D798AB989398AA98DF98B7
:101C000088EE93E028EC30E0F9013197F1F7019785
:101C1000D9F780E060E044EA50E02FC0939AA3989F
:101C2000A2988A98D798AB98AA989298DF9888EE4D
:101C300093E028EC30E0F9013197F1F70197D9F7FB
:101C400080E060E04DEA50E018C0DF9AA298A398C7
:101C50008A988B98A298AB98AA9892989398AB98E8
:101C600088EE93E028EC30E0F9013197F1F7019725
:101C7000D9F780E060E046EB50E00E94A90A0F909F
:101C8000CF91DF911F9108951F93DF93CF930F9210
:101C9000CDB7DEB7182F84B38C6084BB81B38C6062
:101CA00081BBD79A88EE93E028EC30E0F9013197B8
:101CB000F1F70197D9F719820E94670A80EA6FE36A
:101CC000412F0E94C808CE01019660EA4FE30E94AE
:101CD000EC088981833309F43DC0843330F48133C7
:101CE00059F0823309F07EC01EC0843309F449C024
:101CF000853309F077C05CC0AA9AAB988B988A9814
:101D0000D798AB9893989298DF9888EE93E028EC58
:101D100030E0F9013197F1F70197D9F780E060E001
:101D200042E950E05DC0AB9AA2988B988A98D79808
:101D3000AA9893989298DF9888EE93E028EC30E088
:101D4000F9013197F1F70197D9F780E060E04BE9AD
:101D500050E046C0929AA3988B98A298D798AB98D7
:101D60009398AA98DF9888EE93E028EC30E0F90188
:101D70003197F1F70197D9F780E060E044EA50E04D
:101D80002FC0939AA398A2988A98D798AB98AA98AC
:101D90009298DF9888EE93E028EC30E0F9013197D3
:101DA000F1F70197D9F780E060E04DEA50E018C004
:101DB000DF9AA298A3988A988B98A298AB98AA9831
:101DC00092989398AB9888EE93E028EC30E0F90174
:101DD0003197F1F70197D9F780E060E046EB50E0EA
:101DE0000E94A90A0F90CF91DF911F9108951F9330
:101DF000CF93DF93EC0110E006C01E5F80EA612FF5
:101E00000E94C8081150FE01E10FF11D40814423DA
:101E1000A1F7DF91CF911F9108950F931F938C012C
:101E200080EA66E0F80140810E94C80880EA67E025
:101E3000F80141810E94C80880EA68E0F801428107
:101E40000E94C80880EA69E0F80143810E94C8083E
:101E50001F910F91089589E595E00E94F70E85E5A1
:101E600095E00E940D0F089580915E05815080934A
:101E70005E05109290058FEB90E00E94BA09809168
:101E80005D05815080935D05803349F480EA60E010
:101E900040E30E94C80888ED90E00E94BA09809152
:101EA0005D05813351F480EA60E041E30E94C80897
:101EB0008FEE90E00E94BA090895823359F480931E
:101EC0005D0580EA60E042E30E94C80886E091E098
:101ED0000E94BA0908958DE191E00E94BA098CE24E
:101EE00091E00E94BA0908958FEF87BB0E94670AAC
:101EF00080E060E04AE351E00E94A90A87E491E0B3
:101F00000E94BA0988B38F7090915405892B88BBC1
:101F100080E593EC28EC30E0F9013197F1F7019777
:101F2000D9F788B38F7090915305892B88BB08959A
:101F300086E691E00E94BA0983E791E00E94BA091F
:101F400080E891E00E94BA0980E991E00E94BA0914
:101F500081EA91E00E94BA0982EB91E00E94BA09FD
:101F600081EC91E00E94BA0985ED91E00E94BA09E6
:101F70000895CF92DF92EF92FF921F93CF93DF935A
:101F800010929205CC24DD2438ECE32EF12C109233
:101F90008D050E94670A80E060E045EE51E00E94F6
:101FA000A90AC2EBD5E010E010928D050E94D80975
:101FB00080938D0528EB3BE0F7013197F1F7215035
:101FC0003040D1F7888381E0612F0E94950A80918B
:101FD0008D050E946B0A80918D05882339F31F5F60
:101FE0002196143009F780E197E2F7013197F1F774
:101FF0000197D9F70E94670A10928D0588EB9BE044
:10200000F7013197F1F70197D9F780E060E040EFF1
:1020100051E00E94A90AC7ECD5E010E010928D05AE
:102020000E94D80980938D0520ED37E0F7013197A4
:10203000F1F721503040D1F7888381E0612F0E9471
:10204000950A80918D050E946B0A80918D058823E9
:1020500039F31F5F2196143009F780E197E2F70109
:102060003197F1F70197D9F70E94670A10928D0511
:1020700082EB95E06FEC75E00E94B90A019709F0D8
:1020800097C087EC95E06AEA75E00E94B90A892B4F
:1020900009F48EC080E060E040E052E00E94A90AAE
:1020A00081E08093930580E197E228EC30E0F9012C
:1020B0003197F1F70197D9F772C00E94670A0E9421
:1020C000570C0E94D80980938D0520ED37E0FE0162
:1020D0003197F1F721503040D1F7882391F380E117
:1020E00097E2FE013197F1F70197D9F70E94670A4D
:1020F00080918D05823309F447C0833320F4813306
:1021000009F04AC007C0833309F441C0843309F0A1
:1021100043C040C01092920584E995E060EA4FE325
:102120000E94EC0885E995E060EA41E40E94EC0831
:1021300080919205813089F4809194050E94440E2B
:102140008DE092E00E94BA098DE895E00E94C609F0
:1021500080918D050E94440E12C0809195050E94C9
:10216000910D80E060E04DE052E00E94A90A0E94DB
:10217000D80980938D058823D1F30E94910D109288
:102180008D05109393050EC00E94700C05C00E942F
:10219000280C02C01092930510928D0503C0C8EC64
:1021A000D0E011E080919305882309F086CF5FC1CC
:1021B00082EB95E068ED75E00E94B90A019709F09D
:1021C00097C087EC95E066EB75E00E94B90A892B11
:1021D00009F48EC080E060E040E052E00E94A90A6D
:1021E00081E08093930580E197E228EC30E0F901EB
:1021F0003197F1F70197D9F772C00E94670A0E94E0
:10220000570C0E94D80980938D0520ED37E0FE0120
:102210003197F1F721503040D1F7882391F380E1D5
:1022200097E2FE013197F1F70197D9F70E94670A0B
:1022300080918D05823309F447C0833320F48133C4
:1022400009F04AC007C0833309F441C0843309F060
:1022500043C040C01092920584E995E060EA4FE3E4
:102260000E94EC0885E995E060EA41E40E94EC08F0
:1022700080919205813089F4809194050E94440EEA
:102280008DE092E00E94BA098DE895E00E94C609AF
:1022900080918D050E94440E12C0809195050E9488
:1022A000910D80E060E04DE052E00E94A90A0E949A
:1022B000D80980938D058823D1F30E94910D109247
:1022C0008D05109393050EC00E94700C05C00E94EE
:1022D000280C02C01092930510928D0503C0C8EC23
:1022E000D0E011E080919305882309F086CFBFC02C
:1022F00082EB95E06EEB75E00E94B90A019709F058
:1023000097C087EC95E06AEB75E00E94B90A892BCB
:1023100009F48EC080E060E040E052E00E94A90A2B
:1023200081E08093930580E197E228EC30E0F901A9
:102330003197F1F70197D9F772C00E94670A0E949E
:10234000570C0E94D80980938D0520ED37E0FE01DF
:102350003197F1F721503040D1F7882391F380E194
:1023600097E2FE013197F1F70197D9F70E94670ACA
:1023700080918D05823309F447C0833320F4813383
:1023800009F04AC007C0833309F441C0843309F01F
:1023900043C040C01092920584E995E060EA4FE3A3
:1023A0000E94EC0885E995E060EA41E40E94EC08AF
:1023B00080919205813089F4809194050E94440EA9
:1023C0008DE092E00E94BA098DE895E00E94C6096E
:1023D00080918D050E94440E12C0809195050E9447
:1023E000910D80E060E04DE052E00E94A90A0E9459
:1023F000D80980938D058823D1F30E94910D109206
:102400008D05109393050EC00E94700C05C00E94AC
:10241000280C02C01092930510928D0503C0C8ECE1
:10242000D0E011E080919305882309F086CF1FC08A
:102430000894C11CD11C88E893E1F7013197F1F7AA
:102440000197D9F70E94670A80E060E04BE152E013
:102450000E94A90A88E893E1F7013197F1F7019703
:10246000D9F783E0C816D10409F091CD04C083E008
:10247000C816D104A9F488E893E128EC30E0F9010A
:102480003197F1F70197D9F70E94670A80E060E081
:102490004AE252E00E94A90A0E941B0C0E94670AAD
:1024A000DF91CF911F91FF90EF90DF90CF90089533
:1024B000CF92DF92EF92FF920F931F93DF93CF9310
:1024C0000F92CDB7DEB77C01198200E010E06E01FB
:1024D0000894C11CD11CC6010E94C60999819D3077
:1024E00081F080918E058F5F80938E05F701E00F5C
:1024F000F11F90830F5F1F4F0430110511F01982F7
:10250000EACF0F90CF91DF911F910F91FF90EF9045
:10251000DF90CF900895EF92FF920F931F93DF9378
:10252000CF93CDB7DEB728970FB6F894DEBF0FBEB6
:10253000CDBF80915D05803359F485E392E00E9420
:10254000BA0980EA60E040915D050E94C808B2C007
:102550008AE492E00E94BA098E010F5F1F4FC80102
:102560000E9458128EE592E00E94BA0980E792E03C
:102570000E94BA0945E0E42EF12CEC0EFD1EC701C5
:102580000E9458128EE592E00E94BA098FEC95E005
:10259000B8010E94B90A019739F58AEA95E0B701B6
:1025A0000E94B90A019701F51AC0665F80EA4FEFF1
:1025B0000E94C80860919005625F80EA4FEF0E9418
:1025C000C80880919005E82FF0E0DF01A153BA4FD1
:1025D0001C92E655FA4F10828F5F809390056091B0
:1025E0009005643010F35FC0CE01019668ED75E090
:1025F0000E94B90A019741F5CE01059666EB75E098
:102600000E94B90A019701F51AC06E5E80EA4FEF89
:102610000E94C808609190056A5E80EA4FEF0E94B0
:10262000C80880919005E82FF0E0DF01A852BA4F6A
:102630001C92EA54FA4F10828F5F8093900560914C
:102640009005643010F32FC0CE0101966EEB75E05B
:102650000E94B90A019751F5CE0105966AEB75E023
:102660000E94B90A019711F51AC0665E80EA4FEF21
:102670000E94C80860919005625E80EA4FEF0E9458
:10268000C80880919005E82FF0E0DF01A254BA4F0E
:102690001C92E654FA4F10828F5F809390056091F0
:1026A0009005643010F30E94340F04C085E892E076
:1026B0000E94BA0928960FB6F894DEBF0FBECDBFB0
:1026C000CF91DF911F910F91FF90EF90089580912E
:1026D0009105803309F04EC086E992E00E94BA0964
:1026E0008FEC95E00E9458120EC0E62FF0E0E15307
:1026F000FA4F80EA665F40810E94C80880918F058A
:102700008F5F80938F0560918F05643070F3109216
:102710008F058BEA92E00E94BA0988EB9BE028ECD7
:1027200030E0F9013197F1F70197D9F78CEB92E09E
:102730000E94BA098AEA95E00E9458120EC0E62F5C
:10274000F0E0E655FA4F80EA625F40810E94C808D7
:1027500080918F058F5F80938F0560918F05643026
:1027600070F310928F0581E380935D0580EA60E04D
:1027700041E3A1C0813309F04EC08DED92E00E948B
:10278000BA0988ED95E00E9458120EC0E62FF0E0DD
:10279000E852FA4F80EA6E5E40810E94C80880913C
:1027A0008F058F5F80938F0560918F05643070F384
:1027B00010928F058BEA92E00E94BA0988EB9BE0A9
:1027C00028EC30E0F9013197F1F70197D9F782EF62
:1027D00092E00E94BA0986EB95E00E9458120EC062
:1027E000E62FF0E0EA54FA4F80EA6A5E40810E94E8
:1027F000C80880918F058F5F80938F0560918F054A
:10280000643070F310928F0582E380935D0580EA57
:1028100060E042E350C0823309F054C083E193E0AA
:102820000E94BA098EEB95E00E9458120EC0E62F66
:10283000F0E0E254FA4F80EA665E40810E94C808E8
:1028400080918F058F5F80938F0560918F05643035
:1028500070F310928F058BEA92E00E94BA0988EB20
:102860009BE028EC30E0F9013197F1F70197D9F7B7
:1028700088E293E00E94BA098AEB95E00E94581220
:102880000EC0E62FF0E0E654FA4F80EA625E408127
:102890000E94C80880918F058F5F80938F0560919B
:1028A0008F05643070F310928F0583E380935D058C
:1028B00080EA60E043E30E94C8088BEA92E00E944D
:1028C000BA09089589E493E00E94BA098BEA92E07C
:1028D0000E94BA091092920508952F923F924F924A
:1028E0005F926F927F928F929F92AF92BF92CF92A0
:1028F000DF92EF92FF920F931F93DF93CF9300D05D
:102900000F92CDB7DEB73C016A837B834A01222E4A
:10291000302ECE2C198258ECA52EB12C2E01089405
:10292000411C511CBEC088E693E00E94BA0983ECAA
:1029300095E00E94581288EB9BE0F5013197F1F782
:102940000197D9F78BEA92E00E94BA0988EB9BE0E5
:10295000F5013197F1F70197D9F785E793E00E94E8
:10296000BA098BEC95E00E94581288EB9BE0F501C8
:102970003197F1F70197D9F78BEA92E00E94BA09F3
:1029800088EB9BE0F5013197F1F70197D9F7F22C2D
:10299000DD2410E0C2016C2D4F2D0E94EC08F301E4
:1029A000E10FF11D99818081981709F4D3941F5F7D
:1029B000F394143078F38A819B819C018901EE2481
:1029C000FF244F2D430DC2016C2D0E94EC0899810C
:1029D000F8018081981709F4E394F3940F5F1F4F77
:1029E000F4E0FF1671F7DF16A9F4EF1669F58CE82D
:1029F00093E00E94BA0981E0F401808380E197E2CC
:102A000028EC30E0F9013197F1F70197D9F71092EE
:102A10008B054CC0F4E0EF1671F589E993E00E9454
:102A2000BA0988EA93E00E94BA09F4011082809101
:102A30008B058F5F80938B0588E893E1F5013197D3
:102A4000F1F70197D9F72DC089EC93E00E94BA09FC
:102A500088EA93E00E94BA09F401108280918B0504
:102A60008F5F80938B0588E893E1F5013197F1F74B
:102A70000197D9F716C088ED93E00E94BA0988EA59
:102A800093E00E94BA09F401108280918B058F5F58
:102A900080938B0588E893E1F5013197F1F7019771
:102AA000D9F780918B05833008F43DCF80918B0559
:102AB000833040F080EF93E00E94BA090E941B0C23
:102AC00010928B050F900F900F90CF91DF911F9177
:102AD0000F91FF90EF90DF90CF90BF90AF909F90BD
:102AE0008F907F906F905F904F903F902F900895C0
:102AF000EF920F931F930E94550A0E94CC0980E821
:102B000095E20E94360980E895E20E9414090E942D
:102B100019070E948C080E94550A0E942B0F10E38F
:102B20000E946B0F8DE895E00E94C60987E094E053
:102B30000E94BA0980918D05813319F0823381F7A3
:102B4000E0C080E060E04AE054E00E94A90A83EC23
:102B500095E06BEC75E042E955E022E006E0E0EA42
:102B6000EE2E0E946D14C7C00E94980F82EC95E073
:102B70000E94C60987E094E00E94BA098091C205CC
:102B8000873329F410928D051093C205C9CF833382
:102B900009F45CC0843330F4813371F0823309F07E
:102BA000A4C021C0853309F498C0853308F45FC000
:102BB000863309F09AC094C087ED95E060EA40E062
:102BC0000E94EC084091D70540935D0580EA60E0E3
:102BD0000E94C80881E995E060EA40E00E94EC08A4
:102BE0000E94671388C087ED95E060EA40E00E948C
:102BF000EC084091D70540935D0580EA60E00E94B3
:102C0000C8088FEC95E06AEA75E04AE02EE00E9481
:102C1000490D88ED95E066EB75E042E126E10E9402
:102C2000490D8EEB95E06AEB75E04AE12EE10E94DA
:102C3000490D87ED95E060EA40E00E94EC08809144
:102C4000D70580935D050E948B1255C080E060E03F
:102C50004AE054E00E94A90A81E060E045E154E0C6
:102C60000E94A90A0E94740F0E94670A44C084E966
:102C700095E060EA4FE30E94EC0885E995E060EAA0
:102C800041E40E94EC0880919205813089F48091A2
:102C900094050E94440E8FE194E00E94BA098DE8E9
:102CA00095E00E94C60980918D050E94440E12C0D5
:102CB000809195050E94910D80E060E04FE154E025
:102CC0000E94A90A0E94D80980938D058823D1F318
:102CD0000E94910D10928D050EC00E94700C0BC0C9
:102CE0000E94F70B0E94280C06C01093C2058FE2C9
:102CF00094E00E94BA0980919205813009F434CFA2
:102D00000FCF87ED95E060EA40E00E94EC0840912B
:102D1000D70540935D0580EA60E00E94C8088FEC0B
:102D200095E06AEA75E04AE02EE00E94490D88EDE0
:102D300095E066EB75E042E126E10E94490D8EEBDD
:102D400095E06AEB75E04AE12EE10E94490D0E9490
:102D5000DC0A0E94B90FE4CEA1E21A2EAA1BBB1B0B
:102D6000FD010DC0AA1FBB1FEE1FFF1FA217B30757
:102D7000E407F50720F0A21BB30BE40BF50B661F6D
:102D8000771F881F991F1A9469F760957095809531
:102D900090959B01AC01BD01CF01089597FB092ED1
:102DA00005260ED057FD04D0D7DF0AD0001C38F41A
:102DB00050954095309521953F4F4F4F5F4F089567
:102DC000F6F790958095709561957F4F8F4F9F4F47
:102DD00008952F923F924F925F926F927F928F92BF
:102DE0009F92AF92BF92CF92DF92EF92FF920F939A
:102DF0001F93CF93DF93CDB7DEB7CA1BDB0B0FB6A4
:102E0000F894DEBF0FBECDBF09942A883988488860
:102E10005F846E847D848C849B84AA84B984C884F6
:102E2000DF80EE80FD800C811B81AA81B981CE0FED
:102E3000D11D0FB6F894DEBF0FBECDBFED010895D2
:102E4000FB019F01E8944230C4F04532B4F44A30AB
:102E500029F497FB1EF4909581959F4F642F772757
:102E60000E945117805D8A330CF0895D8193CB01FC
:102E70000097A1F716F45DE251931082C9010C94FA
:102E80004117DC01FC01672F71917723E1F732973D
:102E900004C07C916D9370836291AE17BF07C8F335
:102EA0000895AA1BBB1B51E107C0AA1FBB1FA61791
:102EB000B70710F0A61BB70B881F991F5A95A9F7E3
:0E2EC00080959095BC01CD010895F894FFCF48
:102ECE0044696D6D6572204F6E00312D6C656473B3
:102EDE0000322D414300332D44696D6D657200340F
:102EEE002D686F6D650054656D70657261747572D5
:102EFE0065006C65645F315F6F6E006C65645F3298
:102F0E005F6F6E006C65645F335F6F6E006C65643F
:102F1E005F345F6F6E006C65645F355F6F6E00557A
:102F2E0073657220466F756E6420616E6420446511
:102F3E006C657465640D0A00546F74616C20557372
:102F4E0065727320657175616C7320300D0A0054C3
:102F5E006F74616C20557365727320657175616C49
:102F6E007320310D0A00546F74616C2055736572B5
:102F7E007320657175616C7320320D0A00312D61FD
:102F8E00646D696E5F6D6F64650D0A00322D757329
:102F9E0065725F6D6F64650D0A00446F6F72204F2E
:102FAE0070656E696E6700446F6F72204F70656E4C
:102FBE00696E67202D576169742035205365636FE4
:102FCE006E64730D0A002A2A2A2A2A2A2A2A2A2AF3
:102FDE000D0A00312D41646420757365720D0A006F
:102FEE00322D52656D6F766520757365720D0A0010
:102FFE00332D446F6F7220436F6E74726F6C0D0AB7
:10300E0000342D4C616D7020436F6E74726F6C0DB9
:10301E000A00352D414320436F6E74726F6C0D0A9A
:10302E0000362D44696D6D696E6720436F6E747244
:10303E006F6C0D0A00372D52657475726E20486FD5
:10304E006D650D0A00656E7465725F6E616D65006B
:10305E00656E7465725F70696E5F345F6E756D005C
:10306E0057656C636F6D655F486F6D6500656E7457
:10307E006572206C656420317E3500757365725FF4
:10308E006E6F745F666F756E640073797374656DC1
:10309E005F6F6666004E6F20757365727320746F76
:1030AE002052656D6F76650D0A00656E7465725FF0
:1030BE0069645F666F725F757365720D0A002D2D00
:1030CE002D2D2D2D2D2D2D2D2D2D2D2D2D0D0A0092
:1030DE00656E7465725F70696E5F666F725F757331
:1030EE0065720D0A0055736572206E6F7420466FFF
:1030FE00756E640D0A00656E7465725F69645F6655
:10310E006F725F75736572310D0A002D2D2D2D2D89
:10311E002D2D2D2D2D2D2D2D2D0D0A00656E746549
:10312E00725F70696E5F666F75725F6469676974EE
:10313E005F666F725F75736572310D0A00656E742E
:10314E0065725F69645F666F725F75736572320D6B
:10315E000A00656E7465725F70696E5F666F757278
:10316E005F64696769745F666F725F7573657232EB
:10317E000D0A00656E7465725F69645F666F725FDB
:10318E0075736572330D0A00656E7465725F7069D2
:10319E006E5F666F75725F64696769745F666F7282
:1031AE005F75736572330D0A005468657265206928
:1031BE0073204D6178204E756D626572206F6620AA
:1031CE0075736572730D0A00656E7465725F6E615C
:1031DE006D650D0A00656E7465725F70696E5F666F
:1031EE006F75725F64696769740D0A005375636366
:1031FE0065737366756C0D0A00496E76616C696451
:10320E005F4E616D650D0A00506C656173652045FA
:10321E006E74657220526967687420496E666F72AB
:10322E006D6174696F6E0D0A00496E76616C69642A
:10323E005F506173730D0A00696E766C6169645F2D
:10324E006E616D655F616E645F706173730D0A0010
:10325E00776169745F357365635F666F725F627500
:10326E007A7A65720D0A000D0A0061646D696E5FEF
:10327E006D6F646500646F6F725F6F70656E006571
:10328E006E746572206C656420317E350D0A0050B7
:10329E006C6561736520456E74657220526967684E
:1032AE00742043686F6963650D0A0000000000001A
:1032BE0000000000010202030303030404040404DB
:1032CE0004040405050505050505050505050505A3
:1032DE000505050606060606060606060606060683
:1032EE000606060606060606060606060606060670
:1032FE000606060707070707070707070707070753
:10330E00070707070707070707070707070707073F
:10331E00070707070707070707070707070707072F
:10332E00070707070707070707070707070707071F
:10333E000707070808080808080808080808080802
:10334E0008080808080808080808080808080808EF
:10335E0008080808080808080808080808080808DF
:10336E0008080808080808080808080808080808CF
:10337E0008080808080808080808080808080808BF
:10338E0008080808080808080808080808080808AF
:10339E00080808080808080808080808080808089F
:1033AE00080808080808080808080808080808088F
:1033BE0008080860303132333472616D7930300074
:00000001FF
